S01E000041726475696E6F556E6F4672656572746F735F365F312E7372656393
S11300000C9434000C9451000C9451000C94510045
S11300100C9451000C9451000C9451000C94510018
S11300200C9451000C9451000C9451000C949D02BA
S11300300C9451000C9451000C9451000C945100F8
S11300400C9451000C9451000C9451000C945100E8
S11300500C9451000C9451000C9451000C945100D8
S11300600C9451000C94510011241FBECFEFD8E022
S1130070DEBFCDBF11E0A0E0B1E0E4EBFFE002C0E1
S113008005900D92A232B107D9F727E0A2E2B1E0C0
S113009001C01D92AB36B207E1F70E9491000C94A7
S11300A0D8070C940000CF93DF9300D0CDB7DEB710
S11300B00E9454059A83898314E085B1812785B908
S11300C069E270E0CE0101960E949D06F6CFCF93BF
S11300D0DF9300D0CDB7DEB70E9454059A8389839D
S11300E0289A29982B9A2A988091690790916A07EF
S11300F00E94890762E370E0CE0101960E949D068A
S11301002898299A2B982A9A8091690790916A07CE
S11301100E94D40461E270E0CE0101960E949D0623
S1130120DFCF8FEF84B9A12CB12CC12CD12CE12CC1
S1130130F12C02E020E030E040E051E064E071E0C6
S113014087E690E00E94C3030F2EF9E6EF2EF7E056
S1130150FF2EF02D01E020E030E040E051E062E1CC
S113016071E083E590E00E94C3030E942305FFCF62
S1130170FC010396928381832FEF3FEF3483238323
S1130180968385839087878310820895FC01118666
S113019010860895CF93DF939C01FB01DC01119637
S11301A0CD91DC911297D383C2838C819D819583F9
S11301B084838C819D81DC0113967C936E931297CA
S11301C07D836C8331872087F90180818F5F8083F1
S11301D0DF91CF910895CF93DF93EB01488159814B
S11301E04F3F2FEF520721F4FC01A781B0850DC0CA
S11301F0DC01139601C0DF011296ED91FC91139777
S11302002081318142175307B0F71296ED91FC918A
S11302101397FB83EA83D583C483BD83AC8313968E
S1130220DC93CE93129799878887FC0120812F5FF6
S11302302083DF91CF910895CF93DF93FC01A085B4
S1130240B185C281D381848195819D838C83C4814E
S1130250D581828193819B838A8311968D919C9110
S11302601297E817F90731F48481958112969C93CB
S11302708E931197118610868C9181508C93DF9107
S1130280CF91089531E1FC013083319722E220833C
S11302903197A3E3A08331976083319770833197BB
S11302A01082319760E8608331971082319762E061
S11302B06083319763E06083319764E060833197B2
S11302C065E06083319766E06083319767E060831F
S11302D0319768E06083319769E06083319760E12A
S11302E0608331973083319732E13083319733E142
S11302F03083319734E13083319735E1308331975E
S113030036E13083319737E13083319738E13083F8
S1130310319739E13083319730E23083319731E2DC
S1130320308331972083319723E2208331974083B0
S113033031975083319726E22083319727E2208337
S1130340319728E22083319729E22083319720E3F3
S11303502083319721E320838697089510928900A2
S11303608CE7809388008BE080938100EFE6F0E0D7
S1130370808182608083A0916707B0916807CD91E6
S1130380CDBFDD91DEBFFF91EF91DF91CF91BF91A2
S1130390AF919F918F917F916F915F914F913F9119
S11303A02F911F910F91FF90EF90DF90CF90BF900E
S11303B0AF909F908F907F906F905F904F903F9001
S11303C02F901F900F900FBE0F90089581E0089515
S11303D00F920FB6F8940F921F9211242F923F920E
S11303E04F925F926F927F928F929F92AF92BF9241
S11303F0CF92DF92EF92FF920F931F932F933F932D
S11304004F935F936F937F938F939F93AF93BF9318
S1130410CF93DF93EF93FF93A0916707B0916807A1
S11304200DB60D920EB60D920E941C07A09167079F
S1130430B0916807CD91CDBFDD91DEBFFF91EF9103
S1130440DF91CF91BF91AF919F918F917F916F91E8
S11304505F914F913F912F911F910F91FF90EF90DA
S1130460DF90CF90BF90AF909F908F907F906F90D0
S11304705F904F903F902F901F900F900FBE0F9062
S113048008950F920FB6F8940F921F9211242F9291
S11304903F924F925F926F927F928F929F92AF9210
S11304A0BF92CF92DF92EF92FF920F931F932F93FD
S11304B03F934F935F936F937F938F939F93AF93E8
S11304C0BF93CF93DF93EF93FF93A0916707B0910E
S11304D068070DB60D920EB60D920E945E0581114D
S11304E00E941C07A0916707B0916807CD91CDBF0A
S11304F0DD91DEBFFF91EF91DF91CF91BF91AF917D
S11305009F918F917F916F915F914F913F912F9127
S11305101F910F91FF90EF90DF90CF90BF90AF901D
S11305209F908F907F906F905F904F903F902F900F
S11305301F900F900FBE0F9008950E9441021895CE
S11305400F931F93CF93DF93EC010E944E0580918C
S1130550220181111DC0E7E2F1E08CE291E0918378
S1130560808313821282E3E2F1E08BED95E09383C2
S1130570828311821082ABE2B1E014969C938E9335
S113058013971296FC93EE93119781E080932201C6
S1130590209709F45FC09E012C5F3F4F2396CA3D0C
S11305A0D54008F05AC0E0912701F0912801A7E254
S11305B0B1E002C0DF01FC018281938182179307BD
S11305C020F4808191810097A9F7C1E0E332FC0710
S11305D009F446C0CD91DC9111978E010C5F1F4F39
S11305E0808191818D939C9382819381821B930B53
S11305F08930910510F1BF01620F731FDB0113965F
S11306009C938E9312973383228312964D915C911F
S1130610139787E291E001C0CD01EC01A881B98173
S113062012962D913C91139724173507A8F3EB01EB
S1130630B983A883DC016D937C9380910001909130
S1130640010122813381821B930B909301018093DA
S1130650000108C000E010E005C000E010E002C0A6
S113066000E010E00E941B06C801DF91CF911F91AA
S11306700F9108950F931F93CF93DF93009741F148
S1130680EC018C01045011090E944E05F8014281CD
S11306905381A7E2B1E001C0DF01ED91FC91119714
S11306A02281338124173507B8F32497F983E8832B
S11306B00D931C9320910001309101018A819B814B
S11306C0820F931F90930101809300010E941B06E7
S11306D0DF91CF911F910F910895E0912F07F09131
S11306E030078081811107C08FEF9FEF9093030142
S11306F0809302010895E0912F07F091300705805F
S1130700F681E02D0680F781E02D8281938190931C
S11307100301809302010895CF93DF93EC01E091EC
S11307206707F09168079383828380910E07909105
S11307300F07C817D90768F46091670770916807B5
S113074080912D0790912E076E5F7F4F0E94EB00E2
S113075017C0609167077091680780912F07909187
S113076030076E5F7F4F0E94EB00809102019091F1
S11307700301C817D90720F4D0930301C0930201E1
S1130780DF91CF9108954F925F926F927F928F92F3
S11307909F92AF92BF92CF92DF92EF92FF920F930C
S11307A01F93CF93DF934C01EB015A012901C1142C
S11307B0D10439F4CA010E94A0026C01892B09F406
S11307C0E1C086E290E00E94A0023C01009779F02B
S11307D0FC01D08EC78AF1E0AF1AB108CA0CDB1C49
S11307E08881F301818F8881811105C014C0C601FD
S11307F00E943A03C7C0D3015A96FE0131969E0166
S1130800285F3F4FEF0181918D938881882319F0F0
S1130810E217F307B9F7F30110A2102F043008F020
S113082013E0F301168BE3012296CE010E94C60069
S1130830C3010C960E94C600F3017186608684E0B1
S113084090E0811B910995878487738A628A11A23B
S113085012A213A214A215A2A201B401C6010E94FD
S11308604201F30191838083E114F10419F0F7014B
S1130870718260820FB6F8940F92809110078F5F97
S1130880809310078091670790916807892BD1F5B1
S1130890709268076092670780911007813009F0B1
S11308A040C083E497E00E94B8008CE497E00E9483
S11308B0B80085E597E00E94B8008EE597E00E94B5
S11308C0B8008AE397E00E94B80081E397E00E94B1
S11308D0B80084E297E00E94B8008BE197E00E94A0
S11308E0B80081E197E00E94B8008AE397E0909312
S11308F0300780932F0781E397E090932E0780932E
S11309002D070FC080910C0781110BC0E091670780
S1130910F09168078689081720F070926807609242
S11309206707809108078F5F80930807F301868922
S113093090910D07981710F480930D0790E09C0197
S1130940220F331F220F331F220F331F820F931FD7
S1130950BE018D5B984F0E94CA000F900FBE80911C
S11309600C07882359F0E0916707F091680786899E
S1130970801730F40E94E80181E005C081E003C0E3
S113098081E001C08FEFDF91CF911F910F91FF9014
S1130990EF90DF90CF90BF90AF909F908F907F901B
S11309A06F905F904F9008950F931F93CF93DF93B1
S11309B0009709F443C020916707309168078217B4
S11309C0930709F43BC00FB6F8940F92FC012285FB
S11309D033852151374081F5FC0124893589F7E0BD
S11309E024323F0749F1232B39F5EC018C010E5FCA
S11309F01F4FC8010E941C018E8990910D07981702
S1130A0010F480930D0790E09C01220F331F220FF6
S1130A10331F220F331F820F931FB8018D5B984F32
S1130A200E94CA00E0916707F09168079E89868951
S1130A30981710F00E94E8010F900FBEDF91CF913C
S1130A401F910F910895AF92BF92CF92DF92EF92D0
S1130A50FF920F93A12CB12CC12CD12CE12CF12CA1
S1130A6000E020E030E045E550E06CE171E08FED1E
S1130A7096E00E94C303813049F4F89480930C07F4
S1130A8010920F0710920E070E94AE010F91FF9073
S1130A90EF90DF90CF90BF90AF90089580910707BB
S1130AA08F5F8093070708950FB6F8940F92809193
S1130AB00E0790910F070F900FBE0895CF92DF920B
S1130AC0EF92FF920F931F93CF93DF9380910707C9
S1130AD081119BC080910E0790910F07019690930E
S1130AE00F0780930E07E0900E07F0900F07E114B4
S1130AF0F104B9F480912F079091300720912D07CC
S1130B0030912E073093300720932F0790932E07B0
S1130B1080932D07809109078F5F809309070E94B6
S1130B206D038091020190910301E816F90610F417
S1130B30D12C53C0D12CCC24C394E0912F07F09135
S1130B4030078081811107C08FEF9FEF90930301DD
S1130B508093020142C0E0912F07F0913007058095
S1130B60F681E02DC681D7818A819B81E816F9063A
S1130B7028F490930301809302012FC08E010E5F2D
S1130B801F4FC8010E941C018C899D89892B21F06B
S1130B90CE010C960E941C018E8990910D07981726
S1130BA010F480930D0790E09C01220F331F220F55
S1130BB0331F220F331F820F931FB8018D5B984F91
S1130BC00E94CA00E0916707F09168079E898689B0
S1130BD0981708F4B2CFDC2CB0CFE0916707F091FE
S1130BE06807868990E0FC01EE0FFF1FEE0FFF1FE0
S1130BF0EE0FFF1F8E0F9F1FFC01ED5BF84F8081EE
S1130C00823048F0DD24D39406C080910B078F5FB7
S1130C1080930B07D12C80910A07882311F0DD24DF
S1130C20D3948D2DDF91CF911F910F91FF90EF9071
S1130C30DF90CF900895DF92EF92FF920F931F936E
S1130C40CF93DF930FB6F8940F92809107078150EA
S1130C508093070780910707811162C08091100774
S1130C60811133C060C0D7011596ED91FC911697A0
S1130C70C681D781CE010C960E941C018E010E5FA5
S1130C801F4FC8010E941C018E8990910D0798176F
S1130C9010F480930D0790E09C01220F331F220F64
S1130CA0331F220F331F820F931FB8018D5B984FA0
S1130CB00E94CA00E0916707F09168079E898689BF
S1130CC0981758F0D0920A0708C00F2EF4E2EF2EBE
S1130CD0F7E0FF2EF02DDD24D394F70180818111FC
S1130CE0C2CF80910B07882399F080910B0788234A
S1130CF079F0C1E00E945E058111C0930A078091DA
S1130D000B07815080930B0780910B078111F2CF61
S1130D1080910A07813031F40E94E80181E003C028
S1130D2080E001C080E00F900FBEDF91CF911F9152
S1130D300F91FF90EF90DF9008950F931F93CF933F
S1130D40DF938C01EB010E944E0520910E07309138
S1130D500F07F80180819181C80FD91F281739071F
S1130D6048F4C817D90710F5D183C0832C173D0761
S1130D7090F407C0C817D907A8F02C173D0790F0C6
S1130D8015C0809167079091680702960E941C0124
S1130D90CE010E948C030E941B0681110BC00E948D
S1130DA0E80108C0F801D183C083EBCFF801D183F7
S1130DB0C083F1CFDF91CF911F910F9108950BE183
S1130DC017E00F2EF3E4EF2EF7E0FF2EF02D29C0ED
S1130DD00E944E05D801CC910E941B06CC2309F138
S1130DE00FB6F8940F92D8011596ED91FC911697D1
S1130DF0C681D781CE0102960E941C018091100702
S1130E0081508093100780911A07815080931A07AC
S1130E100F900FBE8F89988D0E943A03CE010E94D5
S1130E203A0380911A078111D3CFF7018081823070
S1130E30C0F30E94E801F5CF80910707882321F0D1
S1130E4081E080930A07089510920A0780910D07A4
S1130E5090E0FC01EE0FFF1FEE0FFF1FEE0FFF1FD0
S1130E608E0F9F1FFC01ED5BF84F8081811117C02D
S1130E7080910D07815080930D0780910D0790E0BC
S1130E80FC01EE0FFF1FEE0FFF1FEE0FFF1F8E0F73
S1130E909F1FFC01ED5BF84F8081882349F380910B
S1130EA00D0790E09C01220F331F220F331F220FE6
S1130EB0331F280F391FD901AD5BB84F1196ED913F
S1130EC0FC9112970280F381E02D1296FC93EE932D
S1130ED011972A5B384FE217F30729F422813381F3
S1130EE0FD0132832183FC01EE0FFF1FEE0FFF1F74
S1130EF0EE0FFF1F8E0F9F1FFC01ED5BF84F01806B
S1130F00F281E02D8681978190936807809367072B
S1130F1008950F931F93CF93DF93EC010FB6F894CA
S1130F200F92892B21F4C0916707D09168078E0135
S1130F300E5F1F4FC8010E941C018C899D89892B5B
S1130F4021F0CE010C960E941C01B80181E197E0CA
S1130F500E94CA000F900FBE8091670790916807A6
S1130F60C817D907A9F480910C07882319F00E94A7
S1130F70E80119C08091100790911107981305C0DA
S1130F8010926807109267070EC00E941C070BC0DE
S1130F9080910C07882339F00FB6F8940F920E94C1
S1130FA06D030F900FBEDF91CF911F910F910895A4
S1070FB0F894FFCFDF
S1130FB4DB05FFFF56656869636C654C6967687493
S1130FC473005065644C69676874730049444C4504
S1050FD4000017
S9030000FC
