S01E000041726475696E6F556E6F4672656572746F735F365F312E7372656393
S11300000C9434000C94DE0B0C940B0C0C945100E7
S11300100C9451000C9451000C9451000C94510018
S11300200C9451000C9451000C9451000C94F9035D
S11300300C9451000C9451000C9451000C945100F8
S11300400C9493030C9451000C9451000C945100A3
S11300500C9451000C9451000C9451000C945100D8
S11300600C9451000C94510011241FBECFEFD8E022
S1130070DEBFCDBF11E0A0E0B1E0EAEBF1E202C0E7
S113008005900D92A23AB107D9F728E0A2EAB1E0AF
S113009001C01D92A230B207E1F70E94D9010C946D
S11300A0DB100C9400000F931F93CF93DF93CDB715
S11300B0DEB766970FB6F894DEBF0FBECDBF9F9331
S11300C08F937F936F9384E091E09F938F938E013E
S11300D00F5F1F4F1F930F930E94DE0DC8010E94F4
S11300E04C0C0FB6F894DEBF0FBECDBF66960FB6AC
S11300F0F894DEBF0FBECDBFDF91CF911F910F915A
S11301000895CF93DF9300D000D000D0CDB7DEB7F1
S1130110B12CC12CD12C760120E04FEF5FEFBE0152
S11301206F5F7F4F8091B3019091B4010E94D50617
S1130130813091F789819A818F3F2FE7920751F09F
S1130140092E000CAA0BBB0BC80ED91EEA1EFB1EFF
S1130150B394E2CFB11005C088E091E00E944C0C4A
S1130160D7CF4B2C512C612C712CA4E6B0E0A70105
S113017096010E947A0CB6946B0D711D811D911D20
S1130180A30192010E945B0C2B833C834D835E830D
S1130190CA01B90124E630E040E050E00E945B0C63
S11301A04B015C0199233CF4882499245401861A58
S11301B0970AA80AB90A8CE191E00E944C0CC30189
S11301C0B2010E94530085E291E00E944C0CC701E9
S11301D0B6010E94530084E391E00E944C0C6B81B1
S11301E07C818D819E8124E630E040E050E00E94D5
S11301F05B0CCA01B9010E9453008EE20E94440CB8
S11302008AE088169104A104B1041CF480E30E94DE
S1130210440CC501B4010E94530089E191E00E949D
S11302204C0C76CFCF93DF9300D0CDB7DEB70F2E33
S1130230F0ECEF2EF12CF02D0F2EF6ECCF2ED12C6E
S1130240F02D772473940F2EF2EAAF2EF1E0BF2E37
S1130250F02D0F2E88248A94FFE79F2EF02D8DE336
S113026091E00E944C0C6AE070E080E090E00E9413
S1130270530082E491E00E944C0C8FE491E00E94D0
S11302804C0C10E0F701808188230CF086C0F60145
S11302900081802F0E94440C0D3041F00A3031F06F
S11302A0802F90E00E94CC0D892BE1F0E091B20107
S11302B0EE2309F472C0F0E0EE55FE4F1082109266
S11302C0B2011A8219824AE050E0BE016F5F7F4F8B
S11302D0C5010E94B60C29813A81225A314009F0A5
S11302E061C05BC0E091B201EF3008F056C0E1118B
S11302F009C00B3211F00D3229F47092B201F501EC
S113030000834BC0802F90E0C0970A9708F045C047
S113031081E08E0F8093B201F0E0EE55FE4F008332
S11303203CC01A3098F09A82898220E040E050E084
S1130330BE016F5F7F4F8091B3019091B4010E9421
S1130340260682E390E00E94580A89CF7A83698363
S113035020E04FEF5FEFBE016F5F7F4F8091B301ED
S11303609091B4010E9426061F5F88E691E00E94E6
S11303704C0C612F70E080E090E00E9453008FE607
S113038091E00E944C0C6AE070E080E090E00E94F2
S1130390530081E791E00E944C0C85E090E00E94BC
S11303A0580A70CF611571058105910509F0B9CF1F
S11303B0BACF0E94380C40E062E08BE00E94F8055E
S11303C09093B4018093B301892B29F487E791E0DA
S11303D00E944C0CFFCFA12CB12CC12CD12CE12CB0
S11303E0F12C01E020E030E040E051E06DE871E004
S11303F082E191E00E94D70702E020E030E040E093
S113040051E064E971E081E890E00E94D7070E941E
S1130410E808FFCFFC010396928381832FEF3FEF1F
S113042034832383968385839087878310820895FA
S1130430FC01118610860895CF93DF939C01FB0184
S1130440DC011196CD91DC911297D383C2838C8108
S11304509D81958384838C819D81DC0113967C939B
S11304606E9312977D836C8331872087F901808195
S11304708F5F8083DF91CF910895CF93DF93EB015A
S1130480488159814F3F2FEF520721F4FC01A78186
S1130490B0850DC0DC01139601C0DF011296ED9109
S11304A0FC9113972081318142175307B0F71296BC
S11304B0ED91FC911397FB83EA83D583C483BD83B9
S11304C0AC831396DC93CE93129799878887FC01AB
S11304D020812F5F2083DF91CF910895CF93DF9305
S11304E0FC01A085B185C281D381848195819D83DE
S11304F08C83C481D581828193819B838A83119665
S11305008D919C911297E817F90731F484819581B4
S113051012969C938E931197118610868C9181501C
S11305208C93DF91CF91089531E1FC0130833197B1
S113053022E220833197A3E3A0833197608331972C
S1130540708331971082319760E86083319710820D
S1130550319762E06083319763E06083319764E0B0
S11305606083319765E06083319766E060833197FB
S113057067E06083319768E06083319769E0608366
S1130580319760E1608331973083319732E1308372
S1130590319733E13083319734E13083319735E15A
S11305A03083319736E13083319737E130833197A7
S11305B038E13083319739E13083319730E2308349
S11305C0319731E2308331972083319723E22083BE
S11305D03197408331975083319726E220833197B6
S11305E027E22083319728E22083319729E2208370
S11305F0319720E32083319721E320838697089560
S1130600109289008CE7809388008BE080938100AE
S1130610EFE6F0E0808182608083A091FA07B091D8
S1130620FB07CD91CDBFDD91DEBFFF91EF91DF914F
S1130630CF91BF91AF919F918F917F916F915F9176
S11306404F913F912F911F910F91FF90EF90DF9069
S1130650CF90BF90AF909F908F907F906F905F905E
S11306604F903F902F901F900F900FBE0F900895C2
S113067081E008950F920FB6F8940F921F921124FF
S11306802F923F924F925F926F927F928F929F929E
S1130690AF92BF92CF92DF92EF92FF920F931F938C
S11306A02F933F934F935F936F937F938F939F9376
S11306B0AF93BF93CF93DF93EF93FF93A091FA0788
S11306C0B091FB070DB60D920EB60D920E94B50ABD
S11306D0A091FA07B091FB07CD91CDBFDD91DEBFAC
S11306E0FF91EF91DF91CF91BF91AF919F918F9146
S11306F07F916F915F914F913F912F911F910F9136
S1130700FF90EF90DF90CF90BF90AF909F908F902D
S11307107F906F905F904F903F902F901F900F901D
S11307200FBE0F9008951F920F920FB60F921124CF
S11307300F900FBE0F901F9018950F920FB6F8945C
S11307400F921F9211242F923F924F925F926F92B9
S11307507F928F929F92AF92BF92CF92DF92EF924D
S1130760FF920F931F932F933F934F935F936F9336
S11307707F938F939F93AF93BF93CF93DF93EF9325
S1130780FF93A091FA07B091FB070DB60D920EB638
S11307900D920E94190981110E94B50AA091FA07CD
S11307A0B091FB07CD91CDBFDD91DEBFFF91EF91FD
S11307B0DF91CF91BF91AF919F918F917F916F9175
S11307C05F914F913F912F911F910F91FF90EF9067
S11307D0DF90CF90BF90AF909F908F907F906F905D
S11307E05F904F903F902F901F900F900FBE0F90EF
S11307F008950E949D0318950F931F93CF93DF9341
S1130800EC010E9413098091B50181111DC0EAEB2E
S1130810F1E08FEB91E09183808313821282E6EB07
S1130820F1E08BED95E09383828311821082AEEB2D
S1130830B1E014969C938E9313971296FC93EE93C7
S1130840119781E08093B501209709F45FC09E0160
S11308502C5F3F4F2396CA3DD54008F05AC0E09123
S1130860BA01F091BB01AAEBB1E002C0DF01FC01C7
S1130870828193818217930720F48081918100976C
S1130880A9F7C1E0E63BFC0709F446C0CD91DC9131
S113089011978E010C5F1F4F808191818D939C93E2
S11308A082819381821B930B8930910510F1BF01E2
S11308B0620F731FDB0113969C938E9312973383FD
S11308C0228312964D915C9113978AEB91E001C0BB
S11308D0CD01EC01A881B98112962D913C91139719
S11308E024173507A8F3EB01B983A883DC016D93C2
S11308F07C93809100019091010122813381821BBC
S1130900930B909301018093000108C000E010E074
S113091005C000E010E002C000E010E00E94D6092B
S1130920C801DF91CF911F910F9108950F931F93E9
S1130930CF93DF93009741F1EC018C01045011092E
S11309400E941309F80142815381AAEBB1E001C06E
S1130950DF01ED91FC911197228133812417350732
S1130960B8F32497F983E8830D931C932091000135
S1130970309101018A819B81820F931F9093010121
S1130980809300010E94D609DF91CF911F910F91AE
S113099008951F93CF93DF93EC01142F4C8D4423C0
S11309A0D9F1111116C050E08C819D810E94D50DA2
S11309B02C8D8C819D81820F911D9D838C832A8136
S11309C03B818217930740F1888199819D838C83B1
S11309D023C050E08E819F810E94D50D8C8D90E0C4
S11309E09195819591092E813F81280F391F3F836D
S11309F02E83488159812417350730F42A813B819D
S1130A00820F931F9F838E83123031F48A8D882343
S1130A1019F08A8D81508A8F8A8D8F5F8A8F80E04A
S1130A20DF91CF911F910895FF920F931F93CF935E
S1130A30DF9300D0CDB7DEB79A838983FC01078D9D
S1130A4010A1F801928D838D9817E8F4462FBE010A
S1130A506F5F7F4FC8010E94C904F82EF801868D8C
S1130A608F3F61F48189882379F0C80141960E94FF
S1130A704E0B882349F0FF24F39406C0F801868DB9
S1130A808F5F868F01C0F12C8F2D0F900F90DF9117
S1130A90CF911F910F91FF900895FC01448D442341
S1130AA0A9F050E026813781240F351F3783268330
S1130AB0828193812817390720F08081918197835F
S1130AC08683CB01668177810E94D50D08950F93AB
S1130AD01F93CF93DF93EC010FB6F8940F928E8D92
S1130AE01816FCF48E010F5E1F4F8F8D98A1892B71
S1130AF049F060E0CE010E941405813061F40E9447
S1130B00DA0B09C08989882361F0C8010E944E0B61
S1130B1081110E94DA0B8E8D81508E8F8E8D181666
S1130B2024F38FEF8E8F0F900FBE0FB6F8940F92B1
S1130B308D8D1816BCF48885811105C013C0888575
S1130B40811104C00FC08E01085F1F4FC8010E94AD
S1130B504E0B81110E94DA0B8D8D81508D8F8D8DFE
S1130B6018166CF38FEF8D8F0F900FBEDF91CF911E
S1130B701F910F910895CF93DF93EC010FB6F89472
S1130B800F92488159812C8D30E07B8D729FC0017A
S1130B90739F900D1124FA01E80FF91FFB83EA8378
S1130BA01A8E5D834C83821B930B840F951F9F8346
S1130BB08E838FEF8D8F8E8F61110CC08885882373
S1130BC089F0CE0108960E944E0B813059F40E94A0
S1130BD03A0308C0CE0108960E940A02CE0141964B
S1130BE00E940A020F900FBE81E0DF91CF91089519
S1130BF00F931F93CF93DF93082F162F6623C9F00B
S1130C00869FC001112482960E94FC03EC01009788
S1130C1021F416C0D983C88303C08196998388833D
S1130C200B8F1C8F61E0CE010E94BB0518A21F8EA2
S1130C3007C081E290E00E94FC03EC01892B51F78C
S1130C40CE01DF91CF911F910F9108959F92AF92A2
S1130C50BF92CF92DF92EF92FF920F931F93CF93A5
S1130C60DF9300D000D01F92CDB7DEB78C016B01AB
S1130C705D834C83A22EB12C992493947C0188E04B
S1130C80E80EF11C0FB6F8940F92F801928D838D43
S1130C90981718F0F2E0AF1227C04A2DB601C80128
S1130CA00E94C904F801278D30A1232B49F06A2D35
S1130CB0C8010E941405813099F40E943A0310C0BF
S1130CC0F8019189992349F0C80141960E944E0B7D
S1130CD0813031F40E943A0303C081110E943A0327
S1130CE00F900FBE81E050C08C819D81892B21F42F
S1130CF00F900FBE80E048C0B11005C0CE01019630
S1130D000E94960BB92C0F900FBE0E9413090FB6C8
S1130D10F8940F92F801858D8F3F09F4158EF80130
S1130D20868D8F3F09F4168E0F900FBEBE016C5F47
S1130D307F4FCE0101960E94A10B81111FC00FB6F7
S1130D40F8940F92F801928D0F900FBE838D981333
S1130D500FC06C817D81C7010E94220BC8010E94D3
S1130D6067050E94D60981118DCF0E943A038ACF6C
S1130D70C8010E9467050E94D60984CFC8010E9459
S1130D8067050E94D60980E00F900F900F900F9096
S1130D900F90DF91CF911F910F91FF90EF90DF9013
S1130DA0CF90BF90AF909F9008959F92AF92BF92C3
S1130DB0CF92DF92EF92FF920F931F93CF93DF9323
S1130DC000D000D01F92CDB7DEB78C016B015D83DC
S1130DD04C83922EB12CAA24A3947C0181E1E80EC9
S1130DE0F11C0FB6F8940F92F801828D882349F113
S1130DF0E680F780B601C8010E944D05911010C02D
S1130E00F801828D8150828F80858823B1F0C801DA
S1130E1008960E944E0B813081F40E943A030DC063
S1130E20F801F782E6828189882339F0C801419666
S1130E300E944E0B81110E943A030F900FBE81E075
S1130E404FC08C819D81892B21F40F900FBE80E0CF
S1130E5047C0B11005C0CE0101960E94960BBA2C72
S1130E600F900FBE0E9413090FB6F8940F92F80169
S1130E70858D8F3F09F4158EF801868D8F3F09F417
S1130E80168E0F900FBEBE016C5F7F4FCE01019690
S1130E900E94A10B81111EC00FB6F8940F92F801A5
S1130EA0828D0F900FBE81110FC06C817D81C701AF
S1130EB00E94220BC8010E9467050E94D609811175
S1130EC090CF0E943A038DCFC8010E9467050E940B
S1130ED0D60987CFC8010E9467050E94D60980E021
S1130EE00F900F900F900F900F90DF91CF911F9163
S1130EF00F91FF90EF90DF90CF90BF90AF909F90B5
S1130F000895E091C207F091C3078081811107C061
S1130F108FEF9FEF90930301809302010895E09176
S1130F20C207F091C3070580F681E02D0680F781A2
S1130F30E02D8281938190930301809302010895AF
S1130F40CF93DF93EC01E091FA07F091FB079383D1
S1130F5082838091A1079091A207C817D90768F4EA
S1130F606091FA077091FB078091C0079091C107C7
S1130F706E5F7F4F0E943D0217C06091FA07709127
S1130F80FB078091C2079091C3076E5F7F4F0E9459
S1130F903D028091020190910301C817D90720F402
S1130FA0D0930301C0930201DF91CF9108954F9232
S1130FB05F926F927F928F929F92AF92BF92CF92E5
S1130FC0DF92EF92FF920F931F93CF93DF934C0125
S1130FD0EB015A012901C114D10439F4CA010E9458
S1130FE0FC036C01892B09F4E1C086E290E00E94C5
S1130FF0FC033C01009779F0FC01D08EC78AF1E034
S1131000AF1AB108CA0CDB1C8881F301818F888177
S1131010811105C014C0C6010E949604C7C0D30143
S11310205A96FE0131969E01285F3F4FEF01819150
S11310308D938881882319F0E217F307B9F7F30138
S113104010A2102F043008F013E0F301168BE30113
S11310502296CE010E941802C3010C960E94180227
S1131060F3017186608684E090E0811B9109958785
S11310708487738A628A11A212A213A214A215A2EF
S1131080A201B401C6010E949402F30191838083FA
S1131090E114F10419F0F701718260820FB6F8943B
S11310A00F928091A3078F5F8093A3078091FA0723
S11310B09091FB07892BD1F57092FB076092FA0798
S11310C08091A307813009F040C086ED97E00E942B
S11310D00A028FED97E00E940A0288EE97E00E94D0
S11310E00A0281EF97E00E940A028DEC97E00E94C9
S11310F00A0284EC97E00E940A0287EB97E00E94C0
S11311000A028EEA97E00E940A0284EA97E00E94AB
S11311100A028DEC97E09093C3078093C20784EC96
S113112097E09093C1078093C0070FC080919F07F9
S113113081110BC0E091FA07F091FB07868908172B
S113114020F07092FB076092FA0780919B078F5FF3
S113115080939B07F30186899091A007981710F458
S11311608093A00790E09C01220F331F220F331FAE
S1131170220F331F820F931FBE018A52984F0E9481
S11311801C020F900FBE80919F07882359F0E091B5
S1131190FA07F091FB078689801730F40E943A031E
S11311A081E005C081E003C081E001C08FEFDF91E1
S11311B0CF911F910F91FF90EF90DF90CF90BF9050
S11311C0AF909F908F907F906F905F904F90089515
S11311D0AF92BF92CF92DF92EF92FF920F93A12C26
S11311E0B12CC12CD12CE12CF12C00E020E030E01A
S11311F045E550E06DE971E088E79AE00E94D70781
S1131200813049F4F89480939F071092A2071092BA
S1131210A1070E9400030F91FF90EF90DF90CF9001
S1131220BF90AF90089580919A078F5F80939A073B
S11312300895CF92DF92EF92FF920F931F93CF9373
S1131240DF9380919A0781119BC08091A1079091AF
S1131250A20701969093A2078093A107E090A107AB
S1131260F090A207E114F104B9F48091C2079091BF
S1131270C3072091C0073091C1073093C30720935F
S1131280C2079093C1078093C00780919C078F5F2A
S113129080939C070E948107809102019091030131
S11312A0E816F90610F4D12C53C0D12CCC24C394E5
S11312B0E091C207F091C3078081811107C08FEFCD
S11312C09FEF909303018093020142C0E091C20713
S11312D0F091C3070580F681E02DC681D7818A810C
S11312E09B81E816F90628F4909303018093020188
S11312F02FC08E010E5F1F4FC8010E946E028C89A1
S11313009D89892B21F0CE010C960E946E028E8954
S11313109091A007981710F48093A00790E09C0187
S1131320220F331F220F331F220F331F820F931FED
S1131330B8018A52984F0E941C02E091FA07F0917A
S1131340FB079E898689981708F4B2CFDC2CB0CFAE
S1131350E091FA07F091FB07868990E0FC01EE0F1B
S1131360FF1FEE0FFF1FEE0FFF1F8E0F9F1FFC01CD
S1131370EA52F84F8081823048F0DD24D39406C0CD
S113138080919E078F5F80939E07D12C80919D074B
S1131390882311F0DD24D3948D2DDF91CF911F91FB
S11313A00F91FF90EF90DF90CF900895DF92EF922E
S11313B0FF920F931F93CF93DF930FB6F8940F927E
S11313C080919A07815080939A0780919A0781119E
S11313D062C08091A307811133C060C0D701159604
S11313E0ED91FC911697C681D781CE010C960E948F
S11313F06E028E010E5F1F4FC8010E946E028E891D
S11314009091A007981710F48093A00790E09C0196
S1131410220F331F220F331F220F331F820F931FFC
S1131420B8018A52984F0E941C02E091FA07F09189
S1131430FB079E898689981758F0D0929D0708C0AB
S11314400F2EF7EBEF2EF7E0FF2EF02DDD24D394D3
S1131450F70180818111C2CF80919E07882399F082
S113146080919E07882379F0C1E00E9419098111B7
S1131470C0939D0780919E07815080939E07809121
S11314809E078111F2CF80919D07813031F40E9433
S11314903A0381E003C080E001C080E00F900FBEFA
S11314A0DF91CF911F910F91FF90EF90DF900895FE
S11314B0CF93DF93EC01892BB1F00E941309809143
S11314C0A1079091A207C80FD91F8091FA079091A4
S11314D0FB0702960E946E02CE010E94A0070E94A2
S11314E0D609811102C00E943A03DF91CF91089579
S11314F00EEA17E00F2EF6EDEF2EF7E0FF2EF02D9B
S113150029C00E941309D801CC910E94D609CC238A
S113151009F10FB6F8940F92D8011596ED91FC914C
S11315201697C681D781CE0102960E946E028091E1
S1131530A30781508093A3078091AD0781508093C6
S1131540AD070F900FBE8F89988D0E949604CE012F
S11315500E9496048091AD078111D3CFF701808159
S11315608230C0F30E943A03F5CF80919A07882312
S113157021F081E080939D07089510929D0780914A
S1131580A00790E0FC01EE0FFF1FEE0FFF1FEE0F10
S1131590FF1F8E0F9F1FFC01EA52F84F80818111BB
S11315A017C08091A00781508093A0078091A00765
S11315B090E0FC01EE0FFF1FEE0FFF1FEE0FFF1F69
S11315C08E0F9F1FFC01EA52F84F8081882349F354
S11315D08091A00790E09C01220F331F220F331F3C
S11315E0220F331F280F391FD901AA52B84F119661
S11315F0ED91FC9112970280F381E02D1296FC93F9
S1131600EE9311972752384FE217F30729F42281FA
S11316103381FD0132832183FC01EE0FFF1FEE0FA6
S1131620FF1FEE0FFF1F8E0F9F1FFC01EA52F84FA2
S11316300180F281E02D868197819093FB0780934E
S1131640FA070895CF93DF93EB016091FA07709145
S1131650FB07645F7F4F0E943D028091FA079091DF
S1131660FB0702960E946E02CF3F8FEFD80759F412
S11316706091FA077091FB076E5F7F4F84EA97E0F1
S11316800E941C0208C08091A1079091A2078C0FB0
S11316909D1F0E94A007DF91CF9108950F931F9380
S11316A0CF93DF93DC011596ED91FC911697C681DB
S11316B0D7818E01045F1F4FC8010E946E02809182
S11316C09A0781111CC00A501109C8010E946E02B8
S11316D08E899091A007981710F48093A00790E04A
S11316E09C01220F331F220F331F220F331F820F3F
S11316F0931FB8018A52984F0E941C0205C0B8017A
S113170087EB97E00E941C02E091FA07F091FB0737
S11317109E898689891720F481E080939D0701C002
S113172080E0DF91CF911F910F91089520919C0744
S1131730FC0120832091A1073091A20732832183E9
S113174008950FB6F8940F924091A1075091A20703
S1131750DB012D913C912F3FBFEF3B0719F1E09145
S11317609C07DC01FC91FE1739F01196ED91FC9178
S113177012974E175F07C0F4DC011196ED91FC91AE
S11317801297DA01AE1BBF0BA217B30778F4DB0183
S1131790E41BF50B2E0F3F1F2D933C930E94960BD9
S11317A080E005C080E003C081E001C081E00F90CB
S11317B00FBE089581E080939D0708951F920F92B4
S11317C00FB60F9211242F933F934F935F936F9310
S11317D07F938F939F93AF93BF93EF93FF938091E6
S11317E0FC079091FD07892B29F0E091FC07F0910B
S11317F0FD070995FF91EF91BF91AF919F918F9153
S11318007F916F915F914F913F912F910F900FBEF8
S11318100F901F9018951F920F920FB60F921124DC
S11318202F933F934F935F936F937F938F939F93E4
S1131830AF93BF93EF93FF938091FE079091FF07BF
S1131840892B29F0E091FE07F091FF070995FF919C
S1131850EF91BF91AF919F918F917F916F915F9124
S11318604F913F912F910F900FBE0F901F9018959D
S11318701092C50087E68093C4008CE18093C10078
S113188086E08093C2000895E0ECF0E0908195FF3B
S1131890FDCF8093C6000895CF93DF93EC01888138
S11318A0882331F021960E94440C89918111FBCF49
S11318B0DF91CF910895052E97FB1EF400940E94AA
S11318C0720C57FD07D00E94850C07FC03D04EF420
S11318D00C94720C50954095309521953F4F4F4F85
S11318E05F4F089590958095709561957F4F8F4FC8
S11318F09F4F08950E94A70CA59F900DB49F900D33
S1131900A49F800D911D11240895A1E21A2EAA1BF3
S1131910BB1BFD010DC0AA1FBB1FEE1FFF1FA2179B
S1131920B307E407F50720F0A21BB30BE40BF50B98
S1131930661F771F881F991F1A9469F76095709521
S1131940809590959B01AC01BD01CF010895A29FA4
S1131950B001B39FC001A39F700D811D1124911D7F
S1131960B29F700D811D1124911D0895A0E0B0E077
S1131970ECEBFCE00C94A5105C016B017A016115A1
S1131980710519F0FB0191838083E114F10429F0BE
S1131990C7010297839708F0E5C0E5012196F50198
S11319A01081812F90E00E94CC0D892B11F05E01F3
S11319B0F4CF1D3229F42196F501118101E007C00D
S11319C01B3221F4E5012296F501118100E0E114B6
S11319D0F10409F1F0E1EF16F10429F43FC010E33A
S11319E0E114F10421F128E0E216F10401F154F4C8
S11319F0E2E0EE16F10421F5812C912CA12CB0E447
S1131A00BB2E3EC0FAE0EF16F10439F020E1E216F5
S1131A10F104B1F430C0103319F1FAE0EF2EF12CD7
S1131A20ACEC8A2E982CA82CACE0BA2E29C078E015
S1131A30E72EF12C812C912CA12CE0E1BE2E20C0AC
S1131A4060E070E080E090E897010F2C000C440BFC
S1131A50550B0E94850C49015A0112C0103359F4E8
S1131A6088818F7D883509F0BACF1981229602606A
S1131A7080E1E82EF12C812C912CA12C68E0B62E6B
S1131A8040E060E070E0CB0127010F2C000C6608F9
S1131A907708FE0150ED352E310E29E0231570F440
S1131AA02FEB210F2A3118F439EC332E06C02FE91D
S1131AB0210F2A3118F529EA322E310E232D30E078
S1131AC02E153F05DCF447FD16C086169706A806BA
S1131AD0B90670F0A30192010E949410630D711D68
S1131AE0811D911D61307105810520E8920710F078
S1131AF04FEF01C041E021961081CBCF202F217000
S1131B00C114D10471F0442329F02197F601D18343
S1131B10C08307C001FF19C02297F601D183C08397
S1131B2014C047FF12C0222329F060E070E080E077
S1131B3090E804C06FEF7FEF8FEF9FE722E230E081
S1131B40309301082093000809C0222381F0909566
S1131B508095709561957F4F8F4F9F4F462F372FFC
S1131B60282F12C040E030E020E090E00DC097FF45
S1131B70F5CF82E290E090930108809300086FEF24
S1131B807FEF8FEF9FE7EACF642F732F822FCDB7BC
S1131B90DEB7E1E10C94C11091110C94E10F803295
S1131BA019F089508550C8F70895FB01DC0102C083
S1131BB001900D9241505040D8F70895AEE0B0E046
S1131BC0E4EEFDE00C94B2100D891E8986E08C834E
S1131BD01A8309838FEF9FE79E838D83AE01475E4F
S1131BE05F4F6F89788DCE0101960E94000EEF81C0
S1131BF0F885E00FF11F10822E96E4E00C94CE10CD
S1131C00ABE0B0E0E6E0FEE00C94A4106C017B01D4
S1131C108A01FC0117821682838181FFCCC1CE0127
S1131C2001963C01F6019381F70193FD859193FFA1
S1131C3081917F01882309F4BAC1853239F493FD77
S1131C40859193FF81917F01853229F4B60190E05B
S1131C500E94FA0FE7CF912C212C312CFFE1F315D0
S1131C60D8F08B3279F038F4803279F08332A1F4F1
S1131C70232D20611DC08D3261F0803369F4232D42
S1131C80216016C0832D8260382EE32DE4603E2E41
S1131C902AC0F32DF8601DC037FC2DC020ED280F9D
S1131CA02A3040F08E32B9F436FC81C1232D2064F1
S1131CB0322E19C036FE06C08AE0989E200D1124EB
S1131CC0922E11C0EAE02E9E200D1124222EF32D17
S1131CD0F0623F2E08C08C3621F4832D8068382EA4
S1131CE002C0883641F4F70193FD859193FF8191F9
S1131CF07F018111B3CF982F9F7D9554933028F4A1
S1131D000C5F1F4F9FE399830DC0833631F08337F7
S1131D1071F0833509F059C021C0F80180818983AD
S1131D200E5F1F4F88248394912C530113C0280104
S1131D30F2E04F0E511CF801A080B18036FE03C0C2
S1131D40692D70E002C06FEF7FEFC5010E94EF0FB5
S1131D504C018201F32DFF773F2E16C0280122E0AB
S1131D60420E511CF801A080B18036FE03C0692DDB
S1131D7070E002C06FEF7FEFC5010E94E40F4C01D9
S1131D80F32DF0683F2E820133FC1BC0822D90E0BE
S1131D9088169906B0F4B60180E290E00E94FA0F2A
S1131DA02A94F4CFF50137FC859137FE81915F01C8
S1131DB0B60190E00E94FA0F21102A9421E0821AC1
S1131DC091088114910471F7E8C0843611F08936C2
S1131DD041F5F80137FE07C06081718182819381EA
S1131DE00C5F1F4F08C060817181072E000C880BA7
S1131DF0990B0E5F1F4FF32DFF763F2E97FF09C0FF
S1131E0090958095709561957F4F8F4F9F4FF068A7
S1131E103F2E2AE030E0A3010E943610882E861857
S1131E2045C0853731F4232D2F7EB22E2AE030E0D1
S1131E3025C0932D997FB92E8F36C1F018F48835BB
S1131E4079F0B5C0803719F0883721F0B0C0E92F98
S1131E50E061BE2EB4FE0DC0FB2DF460BF2E09C0A0
S1131E6034FE0AC0292F2660B22E06C028E030E0D6
S1131E7005C020E130E002C020E132E0F801B7FE05
S1131E8007C060817181828193810C5F1F4F06C0FE
S1131E906081718180E090E00E5F1F4FA3010E947A
S1131EA03610882E8618FB2DFF773F2E36FE0DC088
S1131EB0232D2E7FA22E891458F434FE0BC032FC3D
S1131EC009C0832D8E7EA82E05C0B82CA32C03C078
S1131ED0B82C01C0B92CA4FE0FC0FE01E80DF11D01
S1131EE08081803321F49A2D997EA92E09C0A2FE07
S1131EF006C0B394B39404C08A2D867809F0B394D1
S1131F00A3FC11C0A0FE06C0B21488F4280C922CC5
S1131F109B180EC0B21460F4B60180E290E00E94F7
S1131F20FA0FB394F7CFB21418F42B1802C0982CFC
S1131F30212CA4FE10C0B60180E390E00E94FA0FA9
S1131F40A2FE17C0A1FC03C088E790E002C088E5A8
S1131F5090E0B6010CC08A2D867859F0A1FE02C02B
S1131F608BE201C080E2A7FC8DE2B60190E00E9402
S1131F70FA0F891438F4B60180E390E00E94FA0F56
S1131F809A94F7CF8A94F301E80DF11D8081B6018C
S1131F9090E00E94FA0F8110F5CF222009F442CE7E
S1131FA0B60180E290E00E94FA0F2A94F6CFF6017F
S1131FB08681978102C08FEF9FEF2B96E2E10C940C
S1131FC0C010992788270895FC010590615070403E
S1131FD00110D8F7809590958E0F9F1F0895FC01EE
S1131FE06150704001900110D8F7809590958E0F44
S1131FF09F1F08950F931F93CF93DF93FB012381BA
S113200021FD03C08FEF9FEF2CC022FF16C0468135
S11320105781248135814217530744F4A081B1814B
S11320209D012F5F3F4F318320838C93268137811D
S11320302F5F3F4F3783268314C08B01EC01FB01D4
S11320400084F185E02D0995892BE1F6D8011696D7
S11320508D919C911797019617969C938E93169742
S1132060CE01DF91CF911F910F910895FA01AA2714
S1132070283051F1203181F1E8946F936E7F6E5FC7
S11320807F4F8F4F9F4FAF4FB1E03ED0B4E03CD075
S1132090670F781F891F9A1FA11D680F791F8A1F58
S11320A0911DA11D6A0F711D811D911DA11D20D0BF
S11320B009F468943F912AE0269F11243019305D79
S11320C03193DEF6CF010895462F4770405D41936A
S11320D0B3E00FD0C9F7F6CF462F4F70405D4A33B7
S11320E018F0495D31FD4052419302D0A9F7EACF7F
S11320F0B4E0A6959795879577956795BA95C9F7AE
S113210000976105710508959B01AC010A2E0694A0
S11321105795479537952795BA95C9F7620F731F59
S1132120841F951FA01D0895DB018F939F930E9428
S11321307A0CBF91AF91A29F800D911DA39F900D2A
S1132140B29F900D112408952F923F924F925F9267
S11321506F927F928F929F92AF92BF92CF92DF92B3
S1132160EF92FF920F931F93CF93DF93CDB7DEB718
S1132170CA1BDB0B0FB6F894DEBF0FBECDBF0994AC
S11321802A88398848885F846E847D848C849B8403
S1132190AA84B984C884DF80EE80FD800C811B8111
S11321A0AA81B981CE0FD11D0FB6F894DEBF0FBE40
S10D21B0CDBFED010895F894FFCFB0
S11321BADB05FFFF256C64004E4F204E554D42450A
S11321CA525320464F554E442E0D0A00636F756EC6
S11321DA74203D20002C2073756D6D6174696F6ED7
S11321EA203D20002C20617667203D200054797020
S11321FA650020696E7465676572732E0D0A005452
S113220A797065203020746F207465726D696E610F
S113221A74652E0D0A3E20000D0A4F4B2028002F0C
S113222A00290D0A3E2000517565756520637265A3
S113223A617465206661696C65640D0A0053656E94
S113224A6465720052656365697665720049444C37
S105225A450039
S9030000FC
