S01E000041726475696E6F556E6F4672656572746F735F365F312E7372656393
S11300000C9434000C9451000C9451000C94510045
S11300100C9451000C9451000C9451000C94510018
S11300200C9451000C9451000C9451000C948902CE
S11300300C9451000C9451000C9451000C945100F8
S11300400C9451000C9451000C9451000C945100E8
S11300500C9451000C9451000C9451000C945100D8
S11300600C9451000C94510011241FBECFEFD8E022
S1130070DEBFCDBF11E0A0E0B1E0E6E4FEE002C0E7
S113008005900D92A231B107D9F727E0A2E1B1E0C2
S113009001C01D92A035B207E1F70E9483000C94C1
S11300A021070C940000CF93DF9300D0CDB7DEB7C7
S11300B00E94EC049A838983289A69E270E0CE0155
S11300C001960E943506289869E270E0CE010196F7
S11300D00E943506F1CFCF93DF9300D0CDB7DEB7C2
S11300E00E94EC049A838983299A60E170E0CE012E
S11300F001960E943506299860E170E0CE010196D0
S11301000E943506F1CF8FEF84B9A12CB12CC12CFC
S1130110D12CE12CF12C02E020E030E040E051E071
S113012064E071E083E590E00E94AF0301E020E029
S113013030E040E051E068E071E08BE690E00E943E
S1130140AF030E94BB04FFCFFC010396928381831B
S11301502FEF3FEF348323839683858390878783B0
S113016010820895FC01118610860895CF93DF93C1
S11301709C01FB01DC011196CD91DC911297D38394
S1130180C2838C819D81958384838C819D81DC01D4
S113019013967C936E9312977D836C8331872087AB
S11301A0F90180818F5F8083DF91CF910895CF9390
S11301B0DF93EB01488159814F3F2FEF520721F420
S11301C0FC01A781B0850DC0DC01139601C0DF01DD
S11301D01296ED91FC9113972081318142175307B8
S11301E0B0F71296ED91FC911397FB83EA83D583C4
S11301F0C483BD83AC831396DC93CE931297998703
S11302008887FC0120812F5F2083DF91CF9108959F
S1130210CF93DF93FC01A085B185C281D381848112
S113022095819D838C83C481D581828193819B83B5
S11302308A8311968D919C911297E817F90731F4EE
S11302408481958112969C938E93119711861086C2
S11302508C9181508C93DF91CF91089531E1FC0111
S11302603083319722E220833197A3E3A08331972F
S113027060833197708331971082319760E860838F
S113028031971082319762E06083319763E0608335
S1130290319764E06083319765E06083319766E06D
S11302A06083319767E06083319768E060833197BA
S11302B069E06083319760E16083319730833197DF
S11302C032E13083319733E13083319734E1308345
S11302D0319735E13083319736E13083319737E117
S11302E03083319738E13083319739E13083319766
S11302F030E23083319731E2308331972083319774
S113030023E220833197408331975083319726E24B
S11303102083319727E22083319728E22083319785
S113032029E22083319720E32083319721E320833E
S113033086970895109289008CE7809388008BE05B
S113034080938100EFE6F0E0808182608083A09159
S11303504E07B0914F07CD91CDBFDD91DEBFFF9128
S1130360EF91DF91CF91BF91AF919F918F917F9149
S11303706F915F914F913F912F911F910F91FF903A
S1130380EF90DF90CF90BF90AF909F908F907F9031
S11303906F905F904F903F902F901F900F900FBEE3
S11303A00F90089581E008950F920FB6F8940F927C
S11303B01F9211242F923F924F925F926F927F92DD
S11303C08F929F92AF92BF92CF92DF92EF92FF9261
S11303D00F931F932F933F934F935F936F937F9349
S11303E08F939F93AF93BF93CF93DF93EF93FF9339
S11303F0A0914E07B0914F070DB60D920EB60D9217
S11304000E94B406A0914E07B0914F07CD91CDBF85
S1130410DD91DEBFFF91EF91DF91CF91BF91AF915D
S11304209F918F917F916F915F914F913F912F9108
S11304301F910F91FF90EF90DF90CF90BF90AF90FE
S11304409F908F907F906F905F904F903F902F90F0
S11304501F900F900FBE0F9008950F920FB6F8944F
S11304600F921F9211242F923F924F925F926F929C
S11304707F928F929F92AF92BF92CF92DF92EF9230
S1130480FF920F931F932F933F934F935F936F9319
S11304907F938F939F93AF93BF93CF93DF93EF9308
S11304A0FF93A0914E07B0914F070DB60D920EB673
S11304B00D920E94F60481110E94B406A0914E0789
S11304C0B0914F07CD91CDBFDD91DEBFFF91EF918C
S11304D0DF91CF91BF91AF919F918F917F916F9158
S11304E05F914F913F912F911F910F91FF90EF904A
S11304F0DF90CF90BF90AF909F908F907F906F9040
S11305005F904F903F902F901F900F900FBE0F90D1
S113051008950E942D0218950F931F93CF93DF9394
S1130520EC010E94E6048091120181111DC0E7E1F3
S1130530F1E08CE191E09183808313821282E3E104
S1130540F1E08BED95E09383828311821082ABE11D
S1130550B1E014969C938E9313971296FC93EE93AA
S1130560119781E080931201209709F45FC09E01E6
S11305702C5F3F4F2396CA3DD54008F05AC0E09106
S11305801701F0911801A7E1B1E002C0DF01FC01FD
S1130590828193818217930720F48081918100974F
S11305A0A9F7C1E0E331FC0709F446C0CD91DC9121
S11305B011978E010C5F1F4F808191818D939C93C5
S11305C082819381821B930B8930910510F1BF01C5
S11305D0620F731FDB0113969C938E9312973383E0
S11305E0228312964D915C91139787E191E001C0AB
S11305F0CD01EC01A881B98112962D913C911397FC
S113060024173507A8F3EB01B983A883DC016D93A4
S11306107C93809100019091010122813381821B9E
S1130620930B909301018093000108C000E010E057
S113063005C000E010E002C000E010E00E94B30535
S1130640C801DF91CF911F910F9108950F931F93CC
S1130650CF93DF93009741F1EC018C010450110911
S11306600E94E604F80142815381A7E1B1E001C090
S1130670DF01ED91FC911197228133812417350715
S1130680B8F32497F983E8830D931C932091000118
S1130690309101018A819B81820F931F9093010104
S11306A0809300010E94B305DF91CF911F910F91B8
S11306B00895E0911607F09117078081811107C012
S11306C08FEF9FEF90930301809302010895E091CF
S11306D01607F09117070580F681E02D0680F78153
S11306E0E02D828193819093030180930201089508
S11306F0CF93DF93EC01E0914E07F0914F07938382
S113070082838091FE069091FF06C817D90768F48A
S113071060914E0770914F078091140790911507CF
S11307206E5F7F4F0E94D70017C060914E07709193
S11307304F0780911607909117076E5F7F4F0E94B5
S1130740D7008091020190910301C817D90720F4C2
S1130750D0930301C0930201DF91CF9108954F928A
S11307605F926F927F928F929F92AF92BF92CF923D
S1130770DF92EF92FF920F931F93CF93DF934C017D
S1130780EB015A012901C114D10439F4CA010E94B0
S11307908C026C01892B09F4DCC086E290E00E9493
S11307A08C023C01009779F0FC01D08EC78AF1E0FD
S11307B0AF1AB108CA0CDB1C8881F301818F8881D0
S11307C0811105C014C0C6010E942603C2C0D30112
S11307D05A96FE0131969E01285F3F4FEF018191A9
S11307E08D938881882319F0E217F307B9F7F30191
S11307F010A2102F043008F013E0F301168BE3016C
S11308002296CE010E94B200C3010C960E94B2004F
S1130810F3017186608684E090E0811B91099587DD
S11308208487738A628A11A212A213A214A215A247
S1130830A201B401C6010E942E01F30191838083B9
S1130840E114F10419F0F701718260820FB6F89493
S11308500F92809100078F5F8093000780914E076D
S113086090914F07892BA9F570924F0760924E071C
S1130870809100078130E1F58AE297E00E94A400AC
S113088083E397E00E94A4008CE397E00E94A40015
S113089085E497E00E94A40081E297E00E94A4000E
S11308A088E197E00E94A4008BE097E00E94A400F6
S11308B082E097E00E94A40081E297E090931707FA
S11308C08093160788E197E09093150780931407A7
S11308D00FC08091FC0681110BC0E0914E07F0918E
S11308E04F078689081720F070924F0760924E07D1
S11308F08091F8068F5F8093F806F30186899091C2
S1130900FD06981710F48093FD0690E09C01220FD9
S1130910331F220F331F220F331F820F931FBE0179
S1130920865D984F0E94B6000F900FBE8091FC0622
S1130930882359F0E0914E07F0914F07868980177C
S113094030F40E94D40181E005C081E003C081E05D
S113095001C08FEFDF91CF911F910F91FF90EF9026
S1130960DF90CF90BF90AF909F908F907F906F90CB
S11309705F904F900895AF92BF92CF92DF92EF9223
S1130980FF920F93A12CB12CC12CD12CE12CF12C72
S113099000E020E030E045E550E06CE071E087E7FE
S11309A096E00E94AF03813049F4F8948093FC06EA
S11309B01092FF061092FE060E949A010F91FF907A
S11309C0EF90DF90CF90BF90AF9008958091F7069D
S11309D08F5F8093F70608950FB6F8940F92809175
S11309E0FE069091FF060F900FBE0895CF92DF92FE
S11309F0EF92FF920F931F93CF93DF938091F706AB
S1130A0081119BC08091FE069091FF060196909300
S1130A10FF068093FE06E090FE06F090FF06E114C8
S1130A20F104B9F4809116079091170720911407E7
S1130A3030911507309317072093160790931507E5
S1130A40809314078091F9068F5F8093F9060E94C2
S1130A5059038091020190910301E816F90610F4FC
S1130A60D12C53C0D12CCC24C394E0911607F0911F
S1130A7017078081811107C08FEF9FEF90930301C7
S1130A808093020142C0E0911607F0911707058098
S1130A90F681E02DC681D7818A819B81E816F9060B
S1130AA028F490930301809302012FC08E010E5FFE
S1130AB01F4FC8010E9408018C899D89892B21F050
S1130AC0CE010C960E9408018E899091FD0698171C
S1130AD010F48093FD0690E09C01220F331F220F37
S1130AE0331F220F331F820F931FB801865D984F67
S1130AF00E94B600E0914E07F0914F079E898689C7
S1130B00981708F4B2CFDC2CB0CFE0914E07F091E7
S1130B104F07868990E0FC01EE0FFF1FEE0FFF1FC9
S1130B20EE0FFF1F8E0F9F1FFC01E65DF84F8081C3
S1130B30823048F0DD24D39406C08091FB068F5F99
S1130B408093FB06D12C8091FA06882311F0DD24D2
S1130B50D3948D2DDF91CF911F910F91FF90EF9042
S1130B60DF90CF900895DF92EF92FF920F931F933F
S1130B70CF93DF930FB6F8940F928091F7068150CC
S1130B808093F7068091F706811162C08091000777
S1130B90811133C060C0D7011596ED91FC91169771
S1130BA0C681D781CE010C960E9408018E010E5F8A
S1130BB01F4FC8010E9408018E899091FD06981765
S1130BC010F48093FD0690E09C01220F331F220F46
S1130BD0331F220F331F820F931FB801865D984F76
S1130BE00E94B600E0914E07F0914F079E898689D6
S1130BF0981758F0D092FA0608C00F2EFBE0EF2E9B
S1130C00F7E0FF2EF02DDD24D394F70180818111CC
S1130C10C2CF8091FB06882399F08091FB0688233C
S1130C2079F0C1E00E94F6048111C093FA06809124
S1130C30FB0681508093FB068091FB068111F2CF65
S1130C408091FA06813031F40E94D40181E003C01E
S1130C5080E001C080E00F900FBEDF91CF911F9123
S1130C600F91FF90EF90DF9008950F931F93CF9310
S1130C70DF938C01EB010E94E6042091FE06309183
S1130C80FF06F80180819181C80FD91F2817390701
S1130C9048F4C817D90710F5D183C0832C173D0732
S1130CA090F407C0C817D907A8F02C173D0790F097
S1130CB015C080914E0790914F0702960E9408013B
S1130CC0CE010E9478030E94B30581110BC00E94DB
S1130CD0D40108C0F801D183C083EBCFF801D183DC
S1130CE0C083F1CFDF91CF911F910F91089502E05E
S1130CF017E00F2EFAE2EF2EF7E0FF2EF02D29C0B9
S1130D000E94E604D801CC910E94B305CC2309F1DA
S1130D100FB6F8940F92D8011596ED91FC911697A1
S1130D20C681D781CE0102960E94080180910007F6
S1130D3081508093000780910107815080930107BF
S1130D400F900FBE8F89988D0E942603CE010E94BA
S1130D502603809101078111D3CFF701808182306E
S1130D60C0F30E94D401F5CF8091F706882321F0C7
S1130D7081E08093FA0608951092FA068091FD06A8
S1130D8090E0FC01EE0FFF1FEE0FFF1FEE0FFF1FA1
S1130D908E0F9F1FFC01E65DF84F8081811117C003
S1130DA08091FD0681508093FD068091FD0690E0C0
S1130DB0FC01EE0FFF1FEE0FFF1FEE0FFF1F8E0F44
S1130DC09F1FFC01E65DF84F8081882349F38091E1
S1130DD0FD0690E09C01220F331F220F331F220FC8
S1130DE0331F280F391FD901A65DB84F1196ED9115
S1130DF0FC9112970280F381E02D1296FC93EE93FE
S1130E001197235D384FE217F30729F422813381C8
S1130E10FD0132832183FC01EE0FFF1FEE0FFF1F44
S1130E20EE0FFF1F8E0F9F1FFC01E65DF84F018040
S1130E30F281E02D8681978190934F0780934E072E
S1090E400895F894FFCFB1
S1130E46DB05FFFF4C45440046414E0049444C45F2
S1050E56000096
S9030000FC
