S01E000041726475696E6F556E6F4672656572746F735F365F312E7372656393
S11300000C9434000C94DF0A0C940C0B0C945100E7
S11300100C9451000C9451000C9451000C94510018
S11300200C9451000C9451000C9451000C94C60291
S11300300C9451000C9451000C9451000C945100F8
S11300400C9460020C9451000C9451000C945100D7
S11300500C9451000C9451000C9451000C945100D8
S11300600C9451000C94510011241FBECFEFD8E022
S1130070DEBFCDBF11E0A0E0B1E0EEECF6E102C0DE
S113008005900D92A83BB107D9F728E0A8EBB1E0A1
S113009001C01D92A530B207E1F70E949C000C94A8
S11300A0650B0C940000CF93DF9300D0CDB7DEB77F
S11300B080910308909104080E944E06882321F041
S11300C084E091E00E944D0B20E041E250E0BE014B
S11300D06F5F7F4F80910308909104080E94A205EE
S11300E089E291E00E944D0BE3CFCF93DF9300D0E0
S11300F000D0CDB7DEB79A8389838DE491E00E9466
S11301004D0B0E94EE079C838B8320E040E050E07F
S1130110BE016F5F7F4F80910308909104080E9495
S1130120F30484E591E00E944D0B64E670E0CE0197
S113013003960E943709E9CF0E94390B40E062E040
S113014085E00E94C5049093040880930308892BDA
S113015049F1A12CB12CC12CD12CE12CF12C01E0C2
S113016021E731E044E650E066E771E085E790E09E
S11301700E94AC062EE731E048EC50E066E771E0FF
S113018085E790E00E94AC0602E020E030E040E029
S113019051E06BE871E083E590E00E94AC060E94B8
S11301A0BD0704C084E991E00E944D0BFFCFFC0120
S11301B00396928381832FEF3FEF348323839683C7
S11301C085839087878310820895FC0111861086A9
S11301D00895CF93DF939C01FB01DC011196CD912F
S11301E0DC911297D383C2838C819D819583848310
S11301F08C819D81DC0113967C936E9312977D8391
S11302006C8331872087F90180818F5F8083DF9140
S1130210CF910895CF93DF93EB01488159814F3FEC
S11302202FEF520721F4FC01A781B0850DC0DC013A
S1130230139601C0DF011296ED91FC911397208172
S1130240318142175307B0F71296ED91FC91139741
S1130250FB83EA83D583C483BD83AC831396DC9389
S1130260CE93129799878887FC0120812F5F208382
S1130270DF91CF910895CF93DF93FC01A085B185E1
S1130280C281D381848195819D838C83C481D581EE
S1130290828193819B838A8311968D919C9112977D
S11302A0E817F90731F48481958112969C938E9313
S11302B01197118610868C9181508C93DF91CF9188
S11302C0089531E1FC013083319722E22083319794
S11302D0A3E3A083319760833197708331971082B1
S11302E0319760E8608331971082319762E06083D0
S11302F0319763E06083319764E06083319765E010
S11303006083319766E06083319767E0608331975B
S113031068E06083319769E06083319760E16083CE
S113032031973083319732E13083319733E1308331
S1130330319734E13083319735E13083319736E1B9
S11303403083319737E13083319738E13083319707
S113035039E13083319730E23083319731E23083B1
S113036031972083319723E220833197408331975B
S11303705083319726E22083319727E220833197F7
S113038028E22083319729E22083319720E32083D8
S1130390319721E3208386970895109289008CE792
S11303A0809388008BE080938100EFE6F0E0808109
S11303B082608083A091FD07B091FE07CD91CDBFEF
S11303C0DD91DEBFFF91EF91DF91CF91BF91AF91AE
S11303D09F918F917F916F915F914F913F912F9159
S11303E01F910F91FF90EF90DF90CF90BF90AF904F
S11303F09F908F907F906F905F904F903F902F9041
S11304001F900F900FBE0F90089581E008950F92F2
S11304100FB6F8940F921F9211242F923F924F928D
S11304205F926F927F928F929F92AF92BF92CF9280
S1130430DF92EF92FF920F931F932F933F934F936B
S11304405F936F937F938F939F93AF93BF93CF9358
S1130450DF93EF93FF93A091FD07B091FE070DB6D4
S11304600D920EB60D920E94B609A091FD07B091AF
S1130470FE07CD91CDBFDD91DEBFFF91EF91DF91FE
S1130480CF91BF91AF919F918F917F916F915F9128
S11304904F913F912F911F910F91FF90EF90DF901B
S11304A0CF90BF90AF909F908F907F906F905F9010
S11304B04F903F902F901F900F900FBE0F90089574
S11304C01F920F920FB60F9211240F900FBE0F9030
S11304D01F9018950F920FB6F8940F921F92112443
S11304E02F923F924F925F926F927F928F929F9240
S11304F0AF92BF92CF92DF92EF92FF920F931F932E
S11305002F933F934F935F936F937F938F939F9317
S1130510AF93BF93CF93DF93EF93FF93A091FD0726
S1130520B091FE070DB60D920EB60D920E94F8071B
S113053081110E94B609A091FD07B091FE07CD91EB
S1130540CDBFDD91DEBFFF91EF91DF91CF91BF91E0
S1130550AF919F918F917F916F915F914F913F9157
S11305602F911F910F91FF90EF90DF90CF90BF904C
S1130570AF909F908F907F906F905F904F903F903F
S11305802F901F900F900FBE0F9008950E946A0243
S113059018950F931F93CF93DF93EC010E94E80704
S11305A08091B80181111DC0EDEBF1E082EC91E086
S11305B09183808313821282E9EBF1E08BED95E065
S11305C09383828311821082A1ECB1E014969C93F0
S11305D08E9313971296FC93EE93119781E0809378
S11305E0B801209709F45FC09E012C5F3F4F23960A
S11305F0CA3DD54008F05AC0E091BD01F091BE015A
S1130600ADEBB1E002C0DF01FC018281938182176E
S1130610930720F4808191810097A9F7C1E0E93B19
S1130620FC0709F446C0CD91DC9111978E010C5F53
S11306301F4F808191818D939C9382819381821B32
S1130640930B8930910510F1BF01620F731FDB0119
S113065013969C938E9312973383228312964D9113
S11306605C9113978DEB91E001C0CD01EC01A88161
S1130670B98112962D913C91139724173507A8F34D
S1130680EB01B983A883DC016D937C938091000115
S11306909091010122813381821B930B909301017C
S11306A08093000108C000E010E005C000E010E005
S11306B002C000E010E00E94B508C801DF91CF91AC
S11306C01F910F9108950F931F93CF93DF9300977A
S11306D041F1EC018C01045011090E94E807F80172
S11306E042815381ADEBB1E001C0DF01ED91FC919A
S11306F011972281338124173507B8F32497F9839E
S1130700E8830D931C9320910001309101018A81AB
S11307109B81820F931F90930101809300010E949B
S1130720B508DF91CF911F910F9108951F93CF9337
S1130730DF93EC01142F4C8D4423D9F1111116C011
S113074050E08C819D810E945C0B2C8D8C819D815D
S1130750820F911D9D838C832A813B81821793078D
S113076040F1888199819D838C8323C050E08E81E0
S11307709F810E945C0B8C8D90E0919581959109ED
S11307802E813F81280F391F3F832E834881598151
S11307902417350730F42A813B81820F931F9F83EE
S11307A08E83123031F48A8D882319F08A8D81501A
S11307B08A8F8A8D8F5F8A8F80E0DF91CF911F911E
S11307C00895FF920F931F93CF93DF9300D0CDB77B
S11307D0DEB79A838983FC01078D10A1F801928DFD
S11307E0838D9817E8F4462FBE016F5F7F4FC801D1
S11307F00E949603F82EF801868D8F3F61F481895B
S1130800882379F0C80141960E944F0A882349F051
S1130810FF24F39406C0F801868D8F5F868F01C094
S1130820F12C8F2D0F900F90DF91CF911F910F918D
S1130830FF900895FC01448D4423A9F050E02681E3
S11308403781240F351F37832683828193812817AC
S1130850390720F08081918197838683CB0166815B
S113086077810E945C0B08950F931F93CF93DF93BE
S1130870EC010FB6F8940F928E8D1816FCF48E01CD
S11308800F5E1F4F8F8D98A1892B49F060E0CE0138
S11308900E94E103813061F40E94DB0A09C0898966
S11308A0882361F0C8010E944F0A81110E94DB0A6B
S11308B08E8D81508E8F8E8D181624F38FEF8E8F30
S11308C00F900FBE0FB6F8940F928D8D1816BCF4CE
S11308D08885811105C013C08885811104C00FC0AB
S11308E08E01085F1F4FC8010E944F0A81110E94A8
S11308F0DB0A8D8D81508D8F8D8D18166CF38FEFE3
S11309008D8F0F900FBEDF91CF911F910F9108959E
S1130910CF93DF93EC010FB6F8940F92488159817D
S11309202C8D30E07B8D729FC001739F900D11243C
S1130930FA01E80FF91FFB83EA831A8E5D834C8367
S1130940821B930B840F951F9F838E838FEF8D8F54
S11309508E8F61110CC08885882389F0CE0108969A
S11309600E944F0A813059F40E94070208C0CE0148
S113097008960E94D700CE0141960E94D7000F909E
S11309800FBE81E0DF91CF9108950F931F93CF9312
S1130990DF93082F162F6623C9F0869FC001112408
S11309A082960E94C902EC01009721F416C0D983F3
S11309B0C88303C08196998388830B8F1C8F61E061
S11309C0CE010E94880418A21F8E07C081E290E025
S11309D00E94C902EC01892B51F7CE01DF91CF911E
S11309E01F910F9108959F92AF92BF92CF92DF9281
S11309F0EF92FF920F931F93CF93DF9300D000D019
S1130A001F92CDB7DEB78C016B015D834C83A22EA0
S1130A10B12C992493947C0188E0E80EF11C0FB664
S1130A20F8940F92F801928D838D981718F0F2E0E4
S1130A30AF1227C04A2DB601C8010E949603F801DF
S1130A40278D30A1232B49F06A2DC8010E94E103B0
S1130A50813099F40E94070210C0F801918999230A
S1130A6049F0C80141960E944F0A813031F40E9436
S1130A70070203C081110E9407020F900FBE81E09C
S1130A8050C08C819D81892B21F40F900FBE80E092
S1130A9048C0B11005C0CE0101960E94970AB92C36
S1130AA00F900FBE0E94E8070FB6F8940F92F8015A
S1130AB0858D8F3F09F4158EF801868D8F3F09F4DB
S1130AC0168E0F900FBEBE016C5F7F4FCE01019654
S1130AD00E94A20A81111FC00FB6F8940F92F80168
S1130AE0928D0F900FBE838D98130FC06C817D8102
S1130AF0C7010E94230AC8010E9434040E94B50859
S1130B0081118DCF0E9407028ACFC8010E9434044C
S1130B100E94B50884CFC8010E9434040E94B5081D
S1130B2080E00F900F900F900F900F90DF91CF9176
S1130B301F910F91FF90EF90DF90CF90BF90AF90F7
S1130B409F9008959F92AF92BF92CF92DF92EF92BF
S1130B50FF920F931F93CF93DF9300D000D01F9287
S1130B60CDB7DEB78C016B015D834C83922EB12C23
S1130B70AA24A3947C0181E1E80EF11C0FB6F89439
S1130B800F92F801828D882349F1E680F780B6013F
S1130B90C8010E941A04911010C0F801828D81507E
S1130BA0828F80858823B1F0C80108960E944F0A7D
S1130BB0813081F40E9407020DC0F801F782E682B9
S1130BC08189882339F0C80141960E944F0A811116
S1130BD00E9407020F900FBE81E04FC08C819D815F
S1130BE0892B21F40F900FBE80E047C0B11005C0DF
S1130BF0CE0101960E94970ABA2C0F900FBE0E9454
S1130C00E8070FB6F8940F92F801858D8F3F09F429
S1130C10158EF801868D8F3F09F4168E0F900FBE46
S1130C20BE016C5F7F4FCE0101960E94A20A811122
S1130C301EC00FB6F8940F92F801828D0F900FBE6C
S1130C4081110FC06C817D81C7010E94230AC801F4
S1130C500E9434040E94B508811190CF0E940702BB
S1130C608DCFC8010E9434040E94B50887CFC80103
S1130C700E9434040E94B50880E00F900F900F90FA
S1130C800F900F90DF91CF911F910F91FF90EF90F4
S1130C90DF90CF90BF90AF909F9008950FB6F894D7
S1130CA00F92FC01828D0F900FBE0895E091C5074D
S1130CB0F091C6078081811107C08FEF9FEF909359
S1130CC00301809302010895E091C507F091C607DE
S1130CD00580F681E02D0680F781E02D82819381E5
S1130CE090930301809302010895CF93DF93EC0165
S1130CF0E091FD07F091FE07938382838091A4071E
S1130D009091A507C817D90768F46091FD07709101
S1130D10FE078091C3079091C4076E5F7F4F0E94C6
S1130D200A0117C06091FD077091FE078091C50705
S1130D309091C6076E5F7F4F0E940A018091020165
S1130D4090910301C817D90720F4D0930301C093ED
S1130D500201DF91CF9108954F925F926F927F923B
S1130D608F929F92AF92BF92CF92DF92EF92FF92B7
S1130D700F931F93CF93DF934C01EB015A01290189
S1130D80C114D10439F4CA010E94C9026C01892B2F
S1130D9009F4E1C086E290E00E94C9023C01009798
S1130DA079F0FC01D08EC78AF1E0AF1AB108CA0C01
S1130DB0DB1C8881F301818F8881811105C014C0F7
S1130DC0C6010E946303C7C0D3015A96FE0131963F
S1130DD09E01285F3F4FEF0181918D938881882385
S1130DE019F0E217F307B9F7F30110A2102F04303A
S1130DF008F013E0F301168BE3012296CE010E9462
S1130E00E500C3010C960E94E500F301718660863B
S1130E1084E090E0811B910995878487738A628AB4
S1130E2011A212A213A214A215A2A201B401C60116
S1130E300E946101F30191838083E114F10419F0AC
S1130E40F701718260820FB6F8940F928091A60721
S1130E508F5F8093A6078091FD079091FE07892BF1
S1130E60D1F57092FE076092FD078091A60781304C
S1130E7009F040C089ED97E00E94D70082EE97E028
S1130E800E94D7008BEE97E00E94D70084EF97E092
S1130E900E94D70080ED97E00E94D70087EC97E08E
S1130EA00E94D7008AEB97E00E94D70081EB97E07D
S1130EB00E94D70087EA97E00E94D70080ED97E070
S1130EC09093C6078093C50787EC97E09093C40777
S1130ED08093C3070FC08091A20781110BC0E091DA
S1130EE0FD07F091FE078689081720F07092FE072F
S1130EF06092FD0780919E078F5F80939E07F301A8
S1130F0086899091A307981710F48093A30790E023
S1130F109C01220F331F220F331F220F331F820F16
S1130F20931FBE018752984F0E94E9000F900FBE95
S1130F308091A207882359F0E091FD07F091FE0704
S1130F408689801730F40E94070281E005C081E0A1
S1130F5003C081E001C08FEFDF91CF911F910F910A
S1130F60FF90EF90DF90CF90BF90AF909F908F90C5
S1130F707F906F905F904F900895AF92BF92CF9201
S1130F80DF92EF92FF920F93A12CB12CC12CD12CA4
S1130F90E12CF12C00E020E030E045E550E063EB8B
S1130FA071E089E799E00E94AC06813049F4F89435
S1130FB08093A2071092A5071092A4070E94CD0166
S1130FC00F91FF90EF90DF90CF90BF90AF90089576
S1130FD080919D078F5F80939D0708950FB6F894C5
S1130FE00F928091A4079091A5070F900FBE0895CA
S1130FF0CF92DF92EF92FF920F931F93CF93DF93E1
S113100080919D0781119BC08091A4079091A507B1
S113101001969093A5078093A407E090A407F0900D
S1131020A507E114F104B9F48091C5079091C607AE
S11310302091C3073091C4073093C6072093C50796
S11310409093C4078093C30780919F078F5F809319
S11310509F070E9456068091020190910301E816B1
S1131060F90610F4D12C53C0D12CCC24C394E091B4
S1131070C507F091C6078081811107C08FEF9FEFEC
S1131080909303018093020142C0E091C507F0915F
S1131090C6070580F681E02DC681D7818A819B81B0
S11310A0E816F90628F490930301809302012FC0F7
S11310B08E010E5F1F4FC8010E943B018C899D89E0
S11310C0892B21F0CE010C960E943B018E899091D0
S11310D0A307981710F48093A30790E09C01220FB4
S11310E0331F220F331F220F331F820F931FB801A8
S11310F08752984F0E94E900E091FD07F091FE07A6
S11311009E898689981708F4B2CFDC2CB0CFE09181
S1131110FD07F091FE07868990E0FC01EE0FFF1FAA
S1131120EE0FFF1FEE0FFF1F8E0F9F1FFC01E752F4
S1131130F84F8081823048F0DD24D39406C080913A
S1131140A1078F5F8093A107D12C8091A0078823EA
S113115011F0DD24D3948D2DDF91CF911F910F9148
S1131160FF90EF90DF90CF900895DF92EF92FF927F
S11311700F931F93CF93DF930FB6F8940F92809140
S11311809D07815080939D0780919D07811162C0C6
S11311908091A607811133C060C0D7011596ED91E7
S11311A0FC911697C681D781CE010C960E943B0113
S11311B08E010E5F1F4FC8010E943B018E899091E2
S11311C0A307981710F48093A30790E09C01220FC3
S11311D0331F220F331F220F331F820F931FB801B7
S11311E08752984F0E94E900E091FD07F091FE07B5
S11311F09E898689981758F0D092A00708C00F2EB0
S1131200FAEBEF2EF7E0FF2EF02DDD24D394F70157
S113121080818111C2CF8091A107882399F08091A8
S1131220A107882379F0C1E00E94F8078111C093D7
S1131230A0078091A10781508093A1078091A10705
S11312408111F2CF8091A007813031F40E9407020E
S113125081E003C080E001C080E00F900FBEDF9109
S1131260CF911F910F91FF90EF90DF9008950F930E
S11312701F93CF93DF938C01EB010E94E807209129
S1131280A4073091A507F80180819181C80FD91F67
S11312902817390748F4C817D90710F5D183C08334
S11312A02C173D0790F407C0C817D907A8F02C17CE
S11312B03D0790F015C08091FD079091FE070296BE
S11312C00E943B01CE010E9475060E94B50881115F
S11312D00BC00E94070208C0F801D183C083EBCF82
S11312E0F801D183C083F1CFDF91CF911F910F918A
S11312F0089501EB17E00F2EF9EDEF2EF7E0FF2E26
S1131300F02D29C00E94E807D801CC910E94B508AD
S1131310CC2309F10FB6F8940F92D8011596ED91EC
S1131320FC911697C681D781CE0102960E943B019B
S11313308091A60781508093A6078091B0078150C1
S11313408093B0070F900FBE8F89988D0E9463031E
S1131350CE010E9463038091B0078111D3CFF701BE
S113136080818230C0F30E940702F5CF80919D07EF
S1131370882321F081E08093A00708951092A007AC
S11313808091A30790E0FC01EE0FFF1FEE0FFF1FFB
S1131390EE0FFF1F8E0F9F1FFC01E752F84F808155
S11313A0811117C08091A30781508093A307809176
S11313B0A30790E0FC01EE0FFF1FEE0FFF1FEE0FDF
S11313C0FF1F8E0F9F1FFC01E752F84F8081882377
S11313D049F38091A30790E09C01220F331F220F51
S11313E0331F220F331F280F391FD901A752B84FBB
S11313F01196ED91FC9112970280F381E02D1296E3
S1131400FC93EE9311972452384FE217F30729F413
S113141022813381FD0132832183FC01EE0FFF1F02
S1131420EE0FFF1FEE0FFF1F8E0F9F1FFC01E752F1
S1131430F84F0180F281E02D868197819093FE0719
S11314408093FD070895CF93DF93EB016091FD072F
S11314507091FE07645F7F4F0E940A018091FD072F
S11314609091FE0702960E943B01CF3F8FEFD80771
S113147059F46091FD077091FE076E5F7F4F87EA14
S113148097E00E94E90008C08091A4079091A50705
S11314908C0F9D1F0E947506DF91CF9108950F93C5
S11314A01F93CF93DF93DC011596ED91FC91169772
S11314B0C681D7818E01045F1F4FC8010E943B0182
S11314C080919D0781111CC00A501109C8010E9416
S11314D03B018E899091A307981710F48093A3077A
S11314E090E09C01220F331F220F331F220F331F62
S11314F0820F931FB8018752984F0E94E90005C0DC
S1131500B8018AEB97E00E94E900E091FD07F091B1
S1131510FE079E898689891720F481E08093A007BD
S113152001C080E0DF91CF911F910F910895209128
S11315309F07FC0120832091A4073091A5073283E3
S1131540218308950FB6F8940F924091A407509107
S1131550A507DB012D913C912F3FBFEF3B0719F10C
S1131560E0919F07DC01FC91FE1739F01196ED9193
S1131570FC9112974E175F07C0F4DC011196ED91B0
S1131580FC911297DA01AE1BBF0BA217B30778F4D4
S1131590DB01E41BF50B2E0F3F1F2D933C930E94A0
S11315A0970A80E005C080E003C081E001C081E0CB
S11315B00F900FBE089581E08093A00708951F92B5
S11315C00F920FB60F9211242F933F934F935F9373
S11315D06F937F938F939F93AF93BF93EF93FF93F7
S11315E08091FF0790910008892B29F0E091FF0773
S11315F0F09100080995FF91EF91BF91AF919F91F0
S11316008F917F916F915F914F913F912F910F90A7
S11316100FBE0F901F9018951F920F920FB60F9246
S113162011242F933F934F935F936F937F938F93E3
S11316309F93AF93BF93EF93FF9380910108909191
S11316400208892B29F0E0910108F091020809951C
S1131650FF91EF91BF91AF919F918F917F916F9186
S11316605F914F913F912F910F900FBE0F901F905C
S113167018951092C50087E68093C4008CE180938E
S1131680C10086E08093C2000895E0ECF0E0908110
S113169095FFFDCF8093C6000895CF93DF93EC01AF
S11316A08881882331F021960E94450B899181110C
S11316B0FBCFDF91CF910895FB01DC0102C00190C3
S11116C00D9241505040D8F70895F894FFCF92
S11316CEDB05FFFF51756575652073686F756C6476
S11316DE20626520656D707479210D0A0052656370
S11316EE6569766564203D2000436F756C64206ED9
S11316FE6F7420726563656976652066726F6D20FE
S113170E7468652071756575652E0D0A0073656EB6
S113171E64657200436F756C64206E6F742073651C
S113172E6E6420746F207468652071756575652EFE
S113173E0046726F6D2053656E6465723100467299
S113174E6F6D2053656E6465723200526563656910
S113175E7665720054686520717565756520636FD2
S113176E756C64206E6F742062652063726561749B
S10B177E65640049444C450078
S9030000FC
